:020000040800F2
:10000000400400204915000875060008770600081E
:100010007B0600087F060008830600080000000039
:100020000000000000000000000000008906000839
:1000300087060008000000008B0600088D060008F7
:100040008F06000891060008930600089506000830
:1000500097060008990600089B060008CF060008CE
:1000600007070008090700080B0700080D0700082C
:100070000F070008110700081307000815070008FC
:1000800017070008190700081B0700086315000878
:100090006315000863150008631500081D070008B4
:1000A0005507000857070008590700085B070008B4
:1000B0005D070008C70700080308000805080008D6
:1000C00007080008090800080B0800080D080008C8
:1000D0000F08000811080008130800081508000898
:1000E000170800084F08000851080008DFF80CD076
:1000F00001F0F0FA004800478F0500084004002096
:1001000070B504460D46E1B2FE4801F074F900BF37
:100110004021FC4801F073F90028F9D0204670BD59
:1001200008B506208DF8000009208DF80100002098
:100130008DF8020001208DF80300684600F09CFB5A
:1001400007208DF8000008208DF8010000208DF8B0
:10015000020001208DF80300684600F08DFB172097
:100160008DF800000A208DF8010000208DF80200B3
:1001700001208DF80300684600F07EFB28208DF8F2
:10018000000005208DF8010000208DF802000120FC
:100190008DF80300684600F06FFB1D208DF800000D
:1001A00006208DF8010000208DF8020001208DF856
:1001B0000300684600F060FB1C208DF8000007205B
:1001C0008DF8010000208DF8020001208DF8030059
:1001D000684600F051FB08BD1CB50021012000F06D
:1001E00087FC0121084600F083FC0521012000F076
:1001F0007FFC0E21012000F07BFC44F2230000F084
:10020000CDFB2320009000208DF804000C208DF8F9
:10021000050001208DF80600684600F067FB4FF4EA
:100220008040009000208DF8040008208DF8050023
:1002300001208DF80600684600F058FB1CBD00B593
:100240008FB040F2B230ADF834000120ADF830008C
:100250000020ADF83600ADF832008DF838000CA95A
:10026000A94800F0E9FC6020ADF820000120ADF8BD
:10027000220040F25230ADF826000020ADF82800F0
:100280000420ADF824000020ADF82A004FF480705F
:10029000ADF82C000020ADF82E0008A99A4800F017
:1002A00008FD08A9984800F0D6FD0821964800F0FE
:1002B000D5FF0821944800F0EEFF0121924800F09C
:1002C000C1FF4FF40060ADF804004010ADF8060027
:1002D0008010ADF808007520ADF80A000020ADF8D8
:1002E0000C004FF40050ADF80E004000ADF81000C7
:1002F00001A9854800F050FF0121834800F05CFF10
:100300000121814800F064FF4EF66020ADF8340012
:100310000020ADF83000ADF83600ADF832000CA981
:100320007A4800F089FC00231A460121774800F042
:100330006AFF0520ADF81C0005A9744800F0E1FE35
:1003400001221146714800F052FF47F230516F48C8
:1003500000F0ACFF01216D4800F074FF01216B48F3
:1003600000F02AFF48F23420ADF834008F20ADF8B9
:1003700030000020ADF83600ADF832000CA94FF087
:10038000804000F059FC01221146900700F02FFF39
:100390000121880700F056FF0121880700F00CFFBB
:1003A00041F2BF20ADF834000120ADF8300000204C
:1003B000ADF83600ADF832000CA9554800F03CFC11
:1003C0006020ADF820000120ADF822004FF47A70D3
:1003D000ADF826000020ADF8280008A94C4800F030
:1003E00068FC08A94A4800F0A6FC08A9484800F0A3
:1003F000EBFC08A9464800F02EFD0821444800F017
:100400002DFF0821424800F032FF0821404800F04B
:1004100039FF08213E4800F03EFF01213C4800F032
:1004200011FF01213A4800F0C7FE0FB000BD1FB513
:100430004FF4165000900020ADF80400ADF806000F
:10044000ADF80800ADF80C000C20ADF80A006946C4
:100450002C4800F05BFF01212A4800F0C0FF1FBDBF
:1004600008B5C020ADF8000003208DF80200482038
:100470008DF803006946274800F096FA4FF40070A3
:10048000ADF8000018208DF8030003208DF802005D
:100490006946204800F088FA4FF48060ADF800000B
:1004A00003208DF8020004208DF8030069461948E6
:1004B00000F07AFA44F22300ADF8000003208DF832
:1004C000020048208DF803006946134800F06CFADA
:1004D0004FF48050ADF8000003208DF8020010208A
:1004E0008DF8030069460B4800F05EFA4FF4106087
:1004F000ADF8000003208DF8020018208DF80300ED
:1005000069460BE000380140002C01400004004027
:100510000008004000080140000C0140514800F074
:1005200043FA4FF44050ADF8000003208DF802006C
:1005300010208DF8030069464B4800F035FA4FF45F
:100540000040ADF8000003208DF8020048208DF82F
:1005500003006946444800F027FA4FF47070ADF884
:10056000000003208DF8020018208DF80300694672
:100570003D4800F019FA08BD10B5012144F60D0000
:1005800000F036FB0121072000F03FFB10BDFFF714
:10059000F3FFFFF765FFFFF74AFFFFF750FEFFF796
:1005A0001BFEFFF7BDFD314801F073F828E02F482E
:1005B0000078012813D12D488078012820D12C48BB
:1005C000007808B9012000E0002029490870084699
:1005D000007800F0EEFF00202449887010E02348E6
:1005E000007868B901F007F800F0D9FF01F037F89A
:1005F00000201E490872032048720120487088704C
:10060000D5E7014600BF42F2283201FB02F000E0CC
:10061000401E0028FCD1704710B5044614480078ED
:1006200000F0C7FF4FF49670FFF7EBFFA0780128AA
:1006300002D100F0E0FF12E0A07801280FD00C48B2
:10064000007808B9012000E000200949087003E0A3
:100650000748007800F0ADFFA0780128F8D100F03D
:10066000CAFF10BD00080140000C0140340000200A
:1006700000000020704700BFFEE700BFFEE700BF9C
:10068000FEE700BFFEE7704770477047704770474E
:100690007047704770477047704710B5012000F0F1
:1006A0006CF998B14FF480516A4800F00FFA401E7F
:1006B000C4B222464FF48051664800F014FA01207B
:1006C000654908706549087000F068F910BD10B5FB
:1006D000022000F052F9A8B14FF480515D4800F0BB
:1006E000F5F9401EC4B222464FF48051594800F03B
:1006F000FAF9012058490870002058490870022072
:1007000000F04CF910BD7047704770477047704754
:1007100070477047704770477047704710B520208A
:1007200000F02BF9A8B14FF480514A4800F0CEF9FF
:10073000401EC4B222464FF48051464800F0D3F91F
:10074000012045490870002044494870202000F0ED
:1007500025F910BD704770477047704710B50121EB
:10076000880700F0B4FD68B33D4908780978491C52
:100770003B4A117000EBD0714910B0EB410105D13B
:100780004FF44871374800F099FD10E000213548DA
:1007900000F094FD4FF40041334800F08EF9012839
:1007A00002D12E49087202E000202C4908722B4821
:1007B000027A4FF48051274800F095F9012188070B
:1007C00000F096FD10BD10B50121284800F07FFD16
:1007D000B0B127480088401C254908800846008899
:1007E000022809DB47F23051204800F05FFD214824
:1007F0000068401C1F49086001211C4800F078FD7A
:1008000010BD70477047704770477047704770471A
:1008100070477047704710B54FF4804000F0ADF856
:10082000A0B101200C4908700C49887001030948E7
:1008300000F04CF9401EC4B222464FF480510548E6
:1008400000F051F94FF4804000F0A8F810BD704757
:100850007047000000080140140000203400002010
:100860001D000020002C0140000C0140000400404D
:10087000120000200E00002070B5002100230F227E
:10088000C4780CB3164C246804F4E064C4F5E06446
:10089000210AC1F10403CA40447804FA03F18478C0
:1008A0001440214309010F4C0678A155047804F047
:1008B0001F050124AC4005786D114FF0E02606EBD2
:1008C0008505C5F8004109E0047804F01F050124FE
:1008D000AC40054D0678761145F8264070BD000005
:1008E0000CED00E000E400E080E100E000212D4993
:1008F0008279002A3AD00A46126803689A430B4666
:100900001A600A1D126803689A430B1D1A60027967
:1009100011440A6803681A430A60224A08321268BE
:1009200003689A431F4B08331A601A1D1268036844
:100930009A431C4B0C331A604279102A0ED11A1FAD
:10094000126803681A43174B08331A601A1D12689D
:1009500003681A43134B0C331A600DE011494279B6
:1009600011440A6803681A430A6005E002791144D9
:100970000A6803689A430A60704701460020002213
:10098000084B1B6803EA0102064B14331B680B4239
:1009900002D00AB1012000E0002070470149143163
:1009A00008607047000401402DE9F041024600252F
:1009B0000026002000230024002791F803C00CF03B
:1009C0000F0591F803C01CF0100F03D091F802C07E
:1009D0004CEA0505B1F800C01CF0FF0F31D01468D7
:1009E00000202BE04FF0010C0CFA00F3B1F800C02E
:1009F0000CEA03069E4220D183004FF00F0C0CFA44
:100A000003F7BC4305FA03FC4CEA040491F803C065
:100A1000BCF1280F06D14FF0010C0CFA00FCC2F813
:100A200014C00AE091F803C0BCF1480F05D14FF0A3
:100A3000010C0CFA00FCC2F810C0401C0828D1D3ED
:100A40001460B1F800C0BCF1FF0F34DD5468002021
:100A50002EE000F1080C4FF0010808FA0CF3B1F891
:100A600000C00CEA03069E4221D183004FF00F0C18
:100A70000CFA03F7BC4305FA03FC4CEA040491F8B2
:100A800003C0BCF1280F05D100F1080C08FA0CF8DE
:100A9000C2F8148091F803C0BCF1480F07D100F1EF
:100AA000080C4FF0010808FA0CF8C2F81080401C3E
:100AB0000828CED35460BDE8F08102460020936838
:100AC0000B4201D0012000E00020704702460020C8
:100AD000D3680B4201D0012000E000207047016183
:100AE0007047416170470AB1016100E041617047A0
:100AF00030B500228B071C0F0F2303FA04F20B4BB7
:100B00008C1053F824309343084C8D1044F8253052
:100B100023468C1053F824308C07240F00FA04F479
:100B20002343024C8D1044F8253030BD08000140AD
:100B300030B500210022002400233A4D6D6805F0F5
:100B40000C0121B1042905D0082923D105E0364D37
:100B5000056022E0344D05601FE0324D6D6805F4FC
:100B60007012304D6D6805F48034022505EB924219
:100B70001CB92E4D554305600BE02A4D6D6815F4E8
:100B8000003F03D0294D5543056002E0264D5543F3
:100B9000056002E0244D056000BF00BF214D6D6877
:100BA00005F0F0010909224D6B5C0568DD404560E8
:100BB0001C4D6D6805F4E061090A1D4D6B5C4568CC
:100BC000DD408560174D6D6805F46051C90A184D08
:100BD0006B5C4568DD40C560124D6D6805F44041B1
:100BE000890B144D6B5CC568B5FBF3F5056130BD31
:100BF00029B10C4A926902430A4B9A6104E0094AFE
:100C000092698243074B9A61704729B1054AD269BC
:100C10000243044BDA6104E0024AD2698243014B89
:100C2000DA6170470010024000127A0000093D00AE
:100C30001F0000202F00002000220288FE4B984257
:100C40000ED0FE4B98420BD0B0F1804F08D0FC4B39
:100C5000984205D0FB4B984202D0FB4B984204D1FE
:100C60004FF68F731A404B881A43F84B984207D0BF
:100C7000F74B984204D04FF6FF431A40CB881A43F3
:100C800002808B8883850B880385EB4B98420BD0C1
:100C9000EA4B984208D0EF4B984205D0EE4B984271
:100CA00002D0EE4B984201D10B7A03860123838256
:100CB000704770B5002400220023058C4FF6FE76A5
:100CC00035400584028C8388048B4FF68F752C4049
:100CD000B51E2C400D882C43751E2A400D892A43D1
:100CE0004D882A43D44DA8420BD0D44DA84208D0F9
:100CF000D84DA84205D0D84DA84202D0D74DA84221
:100D000013D14FF6F7752A404D892A434FF6FB75EC
:100D10002A408D882A434FF6FF652B404FF6FF553A
:100D20002B408D892B43CD892B4383800483CD8831
:100D30008586028470BD70B5002400220023058CD6
:100D40004FF6EF7635400584028C8388048B48F695
:100D5000FF752C404FF6FF452C400D882D0644EAC8
:100D600015444FF6DF752A400D892D0542EA1542DC
:100D70004D882D0542EA1542AF4DA84202D0AF4D35
:100D8000A8421BD14FF67F752A404D892D0542EAB6
:100D900015424FF6BF752A408D882D0542EA15424F
:100DA0004FF6FF352B404FF2FF752B408D89AD0478
:100DB00043EA1543CD89AD0443EA15438380048398
:100DC000CD880587028470BD70B500240022002301
:100DD000058C4FF6FF6635400584028C8388848B32
:100DE0004FF68F752C404FF6FC752C400D882C4328
:100DF0004FF6FF552A400D892D0642EA15424D88CF
:100E00002D0642EA15428C4DA84202D08B4DA842D5
:100E10001BD14FF2FF752A404D892D0642EA15423B
:100E20004FF6FF352A408D882D0642EA15424EF6D0
:100E3000FF752B404DF6FF752B408D892D0543EA3C
:100E40001543CD892D0543EA154383808483CD88DE
:100E50008587028470BD70B5002200230024058CB4
:100E60004EF6FF7635400584038C8488828B48F6E5
:100E7000FF752A404FF6FF452A400D882D0642EAAD
:100E800015424DF6FF752B400D892D0743EA15439A
:100E90004D882D0743EA1543674DA84202D0674DA0
:100EA000A84206D14BF6FF752C408D89AD0544EA6A
:100EB000154484808283CD88A0F84050038470BD9F
:100EC000828B4FF2FF331A408283828B0B0642EAF9
:100ED000134282837047F0B50C461546002200216C
:100EE0000026078C4EF6FF7C07EA0C070784828BEE
:100EF000018C27073E0C40F6FF473A402F0642EA96
:100F000017421F0742EA17424B4FB8420ED04B4FD1
:100F1000B8420BD0B0F1804F08D0494FB84205D04D
:100F2000484FB84202D0484FB84206D14DF6FF773D
:100F3000394046F48057394305E047F6FF573940BA
:100F400044F48057394382830184F0BD828B4FF68D
:100F5000F3731A408283828B0A4382837047F0B511
:100F60000C461546002200210026078C4FF6FF6C28
:100F700007EA0C070784828B018C27063E0C4FF68C
:100F80000C773A401F0545EA17473A432A4FB842C3
:100F90000ED02A4FB8420BD0B0F1804F08D0284F66
:100FA000B84205D0274FB84202D0274FB84206D1E9
:100FB0004FF6FF57394046F48077394305E04FF24A
:100FC000FF57394044F48077394382830184F0BD70
:100FD000028B4FF2FF331A400283028B0B0642EA68
:100FE000134202837047F0B50C46154600220021DB
:100FF0000026078C4FF6EF7C07EA0C070784028B6C
:10100000018C27053E0C40F6FF473A401F0742EA95
:1010100017422F0642EA1742074FB84223D0074F24
:10102000B84220D0B0F1804F1DD0054FB8421AD041
:10103000044FB84217D013E0002C014000340140A7
:101040000004004000080040000C00400010004078
:1010500000140040004001400044014000480140AD
:10106000A54FB84206D14FF6DF77394046F010075A
:10107000394305E04FF65F77394044F010073943B4
:1010800002830184F0BD028B4FF6F3731A40028392
:10109000028B0A4302837047F0B50C4615460022C6
:1010A0000021068C4FF6FE773E400684028B018CB1
:1010B0004FF60C7632401E0545EA164632438F4EF7
:1010C000B0420ED08E4EB0420BD0B0F1804F08D05F
:1010D0008C4EB04205D08C4EB04202D0864EB0420B
:1010E00006D14FF6FD76314044F00106314305E06C
:1010F0004FF6F576314044F0010631430283018416
:10110000F0BD70B505460C467C4885420ED07C4843
:1011100085420BD0B5F1804F08D07A48854205D082
:101120007948854202D07448854200D100E000BF72
:10113000208850B92389A28861882846FFF7ACFF30
:10114000E1882846FFF79FFF25E0208804280AD180
:101150002389A28861882846FFF745FFE188284651
:10116000FFF736FF17E0208808280AD12389A288D4
:1011700061882846FFF7F3FEE1882846FFF7E6FE80
:1011800009E02389A28861882846FFF7A4FEE18848
:101190002846FFF795FE70BD0A884B881A438B8856
:1011A0001A43CB881A430B891A434B891A438B89FC
:1011B0001A43A0F84420704721B1028842F001028E
:1011C000028004E002884FF6FE731A4002807047E6
:1011D00031B1B0F8442042F40042A0F8442005E0C8
:1011E000B0F84420C2F30E02A0F84420704710B5B6
:1011F0001AB183890B43838104E08389CC43A4B271
:101200002340838110BDF0B50C4615461E460021D3
:10121000002200230189028B038C4FF6F8773940B6
:1012200021434FF6FC473A4040F201173A434FF64C
:10123000DD773B40370545EA17473B430181028391
:101240000384F0BD21B1028842F08002028004E0F4
:1012500002884FF67F731A40028070470A460021C9
:10126000018B4FF6F77319401143018370470A460B
:101270000021018B4FF2FF731940130641EA13411D
:10128000018370470A460021818B4FF6F77319409E
:101290001143818370470A460021818B4FF2FF730F
:1012A0001940130641EA13418183704781847047D6
:1012B000818670470187704781877047A0F840108A
:1012C00070470146888E70470146888C704730B55C
:1012D0000246002000230024158A05EA01039589AF
:1012E00005EA010413B10CB1012000E0002030BD7B
:1012F000CA43028270470000000C0040002C0140ED
:101300000034014000040040000800402DE9F0478F
:1013100086B005460E460024A24600BFA14600271F
:10132000B08900B100BF2F462C8A4CF6FF700440F4
:10133000F08804432C82AC894EF6F3100440B08848
:1013400031890843718908430443AC81AC8A4FF664
:10135000FF400440B0890443AC8201A8FFF7E8FBDA
:101360002D48874202D1DDF810A001E0DDF80CA085
:10137000A88910F4004F08D00AEBCA0000EB0A104D
:1013800031684900B0FBF1F807E00AEBCA0000EB56
:101390000A1031688900B0FBF1F86420B8FBF0F066
:1013A00004012009642101FB1089A88910F4004F71
:1013B00008D0322000EBC900B0FBF1F000F00700CC
:1013C000044308E0322000EB09106421B0FBF1F087
:1013D00000F00F0004432C8106B0BDE8F08721B176
:1013E000828942F40052828104E082894DF6FF73C3
:1013F0001A4082817047C1F308028280704702461A
:101400000020B1F5007F00D100BF13880B4201D04E
:10141000012000E00020704700380140002100203A
:10142000444A126842F48032424B1A6000BF414A7B
:10143000126802F40030491C10B9B1F5A06FF6D162
:101440003C4A126812F4003F01D0012000E0002065
:10145000012842D1384A126842F01002364B1A6015
:101460001A46126822F003021A601A46126842F005
:1014700002021A602F4A52682E4B5A601A4652686E
:101480005A601A46526842F480625A601A4652689C
:1014900022F47C125A601A46526842F4E8125A60EA
:1014A0001A46126842F080721A6000BF214A126820
:1014B00012F0007FFAD01F4A526822F003021D4B3F
:1014C0005A601A46526842F002025A6000BF194A36
:1014D000526802F00C02082AF9D1704710B5FFF7E4
:1014E0009DFF10BD10B51348006840F00100114980
:1014F000086008464068114908400E49486008469F
:1015000000680F4908400B4908600846006820F44D
:10151000802008600846406820F4FE0048604FF4D0
:101520001F008860FFF7DAFF4FF000600549086090
:1015300010BD000000100240002002400000FFF833
:10154000FFFFF6FE08ED00E006488047064800472A
:10155000FEE7FEE7FEE7FEE7FEE7FEE7FEE7FEE763
:10156000FEE7FEE7E5140008ED00000810B50446AC
:10157000012C09D100215448FFF79EFE40F6B831F6
:101580005148FFF79BFE09E044B940F6B8314E4898
:10159000FFF792FE00214C48FFF790FE10BD10B5FA
:1015A00000214948FFF788FE00214748FFF786FEE3
:1015B00010BD10B50446012C08D101034348FFF7C4
:1015C0008EFA61034148FFF78CFA0AE04CB94FF4F8
:1015D00080513E48FFF785FA4FF400513B48FFF732
:1015E0007EFA3B48FFF76DFE20B940F25231384891
:1015F000FFF75EFE10BD10B54FF480513348FFF782
:1016000070FA4FF400513148FFF76BFA3048FFF79A
:1016100058FEA0F54071523902D12D48FFF748FE1F
:1016200010BD70B505460C46012C0BD10021264893
:10163000FFF73EFE4FF47A712348FFF73BFE01208F
:10164000E8700BE054B94FF4FA611F48FFF730FE21
:1016500000211D48FFF72EFE0020E87070BD10B578
:1016600000211948FFF724FE00211748FFF722FE4A
:1016700010BD10B5044600211548FFF71FFE0220DB
:10168000607210BD10B540F252311148FFF716FEDE
:1016900010BD10B5044600202070012060700020AD
:1016A000A0706060207203206072FFF778FFFFF780
:1016B000D6FF2046FEF7B0FF4FF400410348FFF786
:1016C000FCF9207210BD000000080040000C014031
:1016D000002C0140064C074D06E0E06840F0010395
:1016E00094E8070098471034AC42F6D3FEF702FDA9
:1016F000181700083817000802E008C8121F08C1B0
:10170000002AFAD170477047002001E001C1121F82
:10171000002AFBD1704700003817000800000020A5
:1017200034000000F81600086C1700083400002090
:101730000C04000008170008000000000000000072
:101740000000000000000000000000000000000099
:10175000000000000000000000000001020304017E
:0C17600002030406070809020406080042
:04000005080000ED02
:00000001FF
